:100000000C94C9010C94DB010C94DB010C947E0D63
:100010000C943A350C94DB010C94DB010C94DB015D
:100020000C94DB010C94DB010C94DB010C94C62ACC
:100030000C94DB010C94DB010C94DB010C94DB01D0
:100040000C94EF2C0C94DB010C94DB010C94DB0181
:100050000C94DB010C94DB010C94DB010C94DB01B0
:100060000C94DB010C94DB010C94DB010C94DB01A0
:100070000C9459250C941B250C94DB010C94DB018A
:100080000C94DB010C94DB010C94DB010C94DB0180
:100090000C94DB010C94DB010C94DB010C94DB0170
:1000A0000C94DB010C94DB010C94DB010C94DB0160
:1000B0000C94DB01A204BF0CBF0CAC04B904C60451
:1000C000D304BF0CD704BF0CE504BF0CEF04F90444
:1000D0002A05BF0CBF0CBF0C030510051D056220CF
:1000E000652068206B206E207120742077207A2094
:1000F0007D2080208F259125CA25CA25CA25CA259D
:10010000CA25CA25CA25CA25CA25CA2597259925DB
:100110009B259D259F25A125A325A525CA25A92584
:10012000AB25AD25AF25B125B325CA25B5253E287C
:10013000442847284A284F2857285F28FC28FC28AD
:10014000FC286C286F2878288128FC28FC28FC28AB
:10015000FC28FC28FC288D289728A328AB28AE284B
:10016000B728C028C628CF28FC28D728E028ED28A3
:10017000084AD73B3BCE016E84BCBFFDC12F3D6C0E
:1001800074319ABD56833DDA3D00C77F11BED9E474
:10019000BB4C3E916BAAAABE000000803F05A84C54
:1001A000CDB2D44EB93836A9020C50B99186880820
:1001B0003CA6AAAA2ABE000000803F007C413A006B
:1001C0007C4F763A007C57434F3A007C506E3A00A1
:1001D0007C46533A007C42663A007C57506F733A33
:1001E000007C4D506F733A00536C65657000446F2E
:1001F0006F723A00436865636B00416C61726D0019
:10020000486F6D65004A6F6700486F6C643A005232
:10021000756E0049646C65005B4F50543A005B5644
:1002200045523A47657262696C20312E31652E5312
:10023000657074323031373A00244E00204D002072
:10024000470020530020460020540033382E005B26
:1002500047433A47005B544C4F3A005B4739323AC8
:10026000003330003238005B47005B5052423A00A6
:100270005B484C503A24242024232024472024493E
:1002800020244E2024783D76616C20244E783D6CED
:10029000696E6520244A3D6C696E652024534C507C
:1002A000202443202458202448207E2021203F2041
:1002B0006374726C2D785D0D0A000D0A4772626CD2
:1002C0002047657262696C20312E3165205B2724DE
:1002D0002720666F722068656C705D0D0A00536C94
:1002E000656570696E6700526573746F72696E67D9
:1002F000207370696E646C6500526573746F726907
:100300006E672064656661756C74730050676D205C
:10031000456E6400436865636B204C696D69747356
:1003200000436865636B20446F6F720044697361BA
:10033000626C656400456E61626C65640043617562
:1003400074696F6E3A20556E6C6F636B656400273D
:100350002448277C2724582720746F20756E6C6FE3
:10036000636B00526573657420746F20636F6E74E5
:10037000696E7565005B4D53473A00414C41524DE3
:100380003A000D0A006572726F723A006F6B0D0AC7
:10039000000011241FBECFEFD8E0DEBFCDBF27E0A5
:1003A000A0E0B1E001C01D92A335B207E1F70E94C1
:1003B0007F0F0C94ED3C0C94000088B183FB8827E0
:1003C00080F90895439808953B9A0C94E201909126
:1003D0000206911109C0811103C00E94E20102C00E
:1003E00086FD439A10920C060895CF93DF931F92D7
:1003F000CDB7DEB790910106923049F089830E9413
:10040000BD1F89810F90DF91CF910C94E7010F9070
:10041000DF91CF910895F999FECF92BD81BD81E022
:100420008FBB80B50895F894F999FECF92BD81BD38
:1004300081E08FBB80B58627482F082E000C550B16
:10044000262F30E024233523232B39F06F3F19F07A
:1004500060BD84E006C084E104C0882321F060BD53
:1004600084E28FBBF99A789408958F929F92AF920D
:10047000BF92CF92DF92EF92FF920F931F93CF9391
:100480007C014A016B01C40ED51E8B01C0E05C01EA
:10049000A61AB70AC8018A0D9B1D0C151D0599F0F7
:1004A000C11108C02C2FCC0F330B232F221F222762
:1004B000221F01C021E0F80161918F01C22FC60FF8
:1004C0000E941302E7CF6C2FC701880D991DCF91B1
:1004D0001F910F91FF90EF90DF90CF90BF90AF9062
:1004E0009F908F900C9413028F929F92AF92BF9225
:1004F000CF92DF92EF92FF920F931F93CF934B0116
:100500007A016C01C40ED51E8C01C0E05B01A81AF3
:10051000B90AC501800F911F0C151D0599F00E94A5
:100520000B02C11108C02C2FCC0F330B232F221F1D
:100530002227221F01C021E0C22FC80FF80181939A
:100540008F01E7CFC4018E0D9F1D0E940B0221E099
:1005500030E0C81711F020E030E0C901CF911F91C1
:100560000F91FF90EF90DF90CF90BF90AF909F9052
:100570008F9008958FE3E9E8F5E0DF011D928A95F9
:10058000E9F76CEA75E080E00E94A227811103C0C0
:1005900087E00C942E20089561E171E080EA95E0F7
:1005A0000C94B3352F923F924F925F926F927F924D
:1005B0008F929F92AF92BF92CF92DF92EF92FF9273
:1005C0000F931F93CF93DF93CDB7DEB7AB970FB6E3
:1005D000F894DEBF0FBECDBF7C0189E3E8ECF5E007
:1005E000DF011D928A95E9F78AE0E9E8F5E0A9ECD8
:1005F000B5E001900D928A95E1F7F7018081843290
:1006000011F00C94D30C81E08093C9051092CA05B7
:1006100083E08A8FF1E0FC8F212C312C1CA21BA2DD
:100620001F8E1B8E1D8ECC24C394D12CBAE08B2E32
:10063000912C11E6A12E13E0B12E8A8DF701E80F5F
:10064000F11D0081002309F427C29FEB900F9A311E
:1006500010F00C94B10C8F5F8A8FAE014A5E5F4F31
:10066000BE01665E7F4FC7010E94BD13882311F44F
:100670000C94B30C4E885F88688C798CC301B201EE
:100680000E94583C0E949639162F70E080E090E05E
:100690000E94C7399B01AC01C301B2010E941D3801
:1006A00020E030E048EC52E40E94753B0E94E23BBF
:1006B0000E949639CB01073421F00D3409F4E7C0CC
:1006C00030C1183209F4C3C020F5143168F4113177
:1006D00008F089C0143009F451C008F463C01A301E
:1006E00009F444C00C94BF0C1C3109F43FC050F411
:1006F000163110F00C94BF0C25E1211B2093CB0583
:1007000026E0AAC01E3191F1163209F44BC00C94B8
:10071000BF0C1D3309F495C0A0F4153379F140F4F2
:100720001B3209F477C0113309F474C00C94BF0C68
:100730001C3310F00C94BF0C16531093CF0529E016
:100740008BC01C3538F41A3508F052C0103581F1D1
:100750000C94BF0C1C3551F01F3510F00C94BF0CDD
:100760002EE5211B2093CA0525E076C0009731F4C1
:100770002D8D21110C94B50C31E03D8F1093C805DF
:10078000212F2D7F2C3119F01C3509F062C0009704
:1007900021F00A9711F00C94BF0C610F6093C8050B
:1007A00020E05FC06D8D61110C94B50CA2E0AD8F9F
:1007B0001093C905163209F04EC08431910559F0E5
:1007C0008E31910541F08832910529F082339105EF
:1007D00011F00C94BF0CB4010E948A3C66576093E0
:1007E000C90521E03EC011511093CD0522E034C06F
:1007F000892B29F41A551093CC0523E032C06A30B6
:10080000710511F00C94BF0C1A3511F40C94BF0C47
:1008100024E027C0BD8DB1110C94B50C113331F417
:100820001092CE0528E0E3E0ED8F1BC00A9711F08F
:100830000C94BF0CF1E0F093CE0528E033E03D8F3F
:1008400010C0892B11F00C94BF0C2AE00AC027E0DD
:1008500003C020E001C021E0892B19F087E10C944E
:10086000D70CC60102C0880F991F2A95E2F72BA169
:100870003CA128233923232B19F085E10C94D70CB4
:10088000ABA1BCA1A82BB92BBCA3ABA3D6CE892B03
:1008900029F7163018F4133058F016C0183010F439
:1008A0000C94BF0C1A30F0F01E3159F00C94BF0CB0
:1008B000112319F0113001F104C0B3E0B093D00559
:1008C0001BC01093D00518C0143021F0153031F042
:1008D00080E101C080E28093D20502C01092D2056F
:1008E0008CE00BC0193021F080E48093D10502C068
:1008F0001092D1058DE001C08BE0F60102C0EE0F31
:10090000FF1F8A95E2F72BA13CA12E233F23232B27
:1009100009F0B3CF2BA13CA12E2B3F2B3CA32BA343
:100920008CCE802F000F990BAA0BBB0BFC01E65459
:10093000F109E531F10510F00C94BF0CE65AFF4FB8
:100940000C94C03C4092D3055092D4056092D505DA
:100950007092D60580E07FC04092D7055092D805AE
:100960006092D9057092DA053F8D31603F8F81E04A
:1009700072C04092DB055092DC056092DD057092FA
:10098000DE056F8D62606F8F82E065C04092DF058B
:100990005092E0056092E1057092E2058F8D8460CF
:1009A0008F8F83E058C01093E30584E054C0C301E7
:1009B000B2010E948F396093E4057093E50580933E
:1009C000E6059093E70585E046C04092E805509221
:1009D000E9056092EA057092EB0586E03CC0409222
:1009E000EC055092ED056092EE057092EF0587E000
:1009F00032C04092F0055092F1056092F20570927B
:100A0000F30588E028C04092F5055092F605609203
:100A1000F7057092F8059B8D91609B8F8AE01BC053
:100A20004092F9055092FA056092FB057092FC0520
:100A3000AB8DA260AB8F8BE00EC04092FD05509253
:100A4000FE056092FF0570920006BB8DB460BB8FFF
:100A50008CE001C089E08601082E02C0000F111F42
:100A60000A94E2F7980122213321232B09F07FC752
:100A7000F50102C0F595E7958A95E2F7E0FF09C018
:100A800020E030E0A901C301B2010E94133987FDC3
:100A900070C7202A312AD1CDFB8DFF2329F02D8D5F
:100AA000211102C032E03D8F25FE0EC08091E40589
:100AB0009091E505A091E605B091E705813896494A
:100AC000A849B1050CF057C78C8D8823E9F020FEAA
:100AD0005CC78091CB058130B9F523E333E34BEC60
:100AE00051E46091D3057091D4058091D505909122
:100AF000D6050E94753B6093D3057093D40580930F
:100B0000D5059093D60520C08091CA05813031F477
:100B10009D8D9230C9F420FE38C716C080918A0599
:100B2000811112C020FCD5CF809197059091980536
:100B3000A0919905B0919A058093D3059093D4051F
:100B4000A093D505B093D60530FC10C080919305D5
:100B500090919405A0919505B09196058093F0052C
:100B60009093F105A093F205B093F3058091C80529
:100B7000843031F426FC02C08CE119C7E89426F8D1
:100B80008091CD05882371F0813031F4A1E0A9A7CF
:100B90001EA2B2E0BDA30BC019A6E2E0EEA3F1E0F5
:100BA000FDA305C022E029A731E03EA31DA280914C
:100BB000CB05813021F06D8D6330A1F52BC0F5EFB1
:100BC000EF2EF5E0FF2E00E010E08B8DC82ED12C2B
:100BD000C601002E02C0959587950A94E2F780FF22
:100BE00010C023E333E34BEC51E4D7016D917D91C9
:100BF0008D919C910E94753BF70160837183828384
:100C000093830F5F1F4FF4E0EF0EF11C03301105CB
:100C1000F9F6D1CF8091CE05813021F42B8D24308F
:100C200009F0ABC68CE0ECEAF5E0DE01119601902C
:100C30000D928A95E1F78BA19CA191FD09C090913D
:100C4000C8059E8F9A30B9F09C3509F4A8C009C137
:100C50008091CF05873010F08DE1A9C690918F0566
:100C6000981769F3BE016F5F7F4F0E94A227882308
:100C700009F497C6E4CFAB8DA11102C08AE197C6F3
:100C8000C10180759927892B09F476CF6091E80519
:100C90007091E9058091EA059091EB050E94583C1E
:100CA0000E9496396730C0F68091E305843129F0BF
:100CB000823009F064C627FC62C6BFEA2B22662395
:100CC00019F061506E8F03C0E091CF05EE8F67ED94
:100CD00075E08E8D0E94A227882309F462C6B09029
:100CE000E3054090C4055090C5056090C60570901E
:100CF000C70507ED15E0E0EACE2EE5E0DE2EE12C9B
:100D0000F12CFB8D8F2E912CC4010E2C02C09595D9
:100D100087950A94E2F780FF34C024E1B21228C01C
:100D2000D60158962D913D914D915C915B976D91B7
:100D30007D918D919C910E941D38F801268D378DF3
:100D400040A151A10E941D38D8016D937D938D93D0
:100D50009C931397B2E0EB16F10499F4A30192016E
:100D60000E941D38F801608371838283938309C0D8
:100D7000F801868D978DA0A1B1A180839183A28374
:100D8000B383FFEFEF1AFF0A0C5F1F4F24E0C20E80
:100D9000D11C33E0E316F10409F0B6CF2CC16B8D02
:100DA000662309F46BCF8090C4059090C505A09090
:100DB000C605B090C70505EF15E0C12CD12CE12C7C
:100DC000F12C662E712CF601E757FA4FC3010E2C59
:100DD00002C0959587950A94E2F780FF2BC0A1E0A9
:100DE000B0E0AC0FBD1FAC0DBD1D2D913D914D91DF
:100DF0005C916789708D818D928D0E941D38D8011C
:100E00002D913D914D915C910E941D38F8016083B8
:100E1000718382839383F2E0EF16F104A1F4A501BC
:100E200094010E941D38D8016D937D938D939C93FE
:100E3000139709C087A590A9A1A9B2A9F801808339
:100E40009183A283B383FFEFEF1AFF0A0C5F1F4F5A
:100E500024E0C20ED11C33E0E316F10409F0B3CF55
:100E6000C9C06D8D633071F48E8D8E3109F48AC0E6
:100E7000853309F4BAC08C3109F0BCC067ED75E068
:100E800086E083C09B8D992379F3A091CC05AFA315
:100E90004090C4055090C5056090C6057090C70588
:100EA00070EAC72E75E0D72E05EF15E0FE013196EA
:100EB0004F01E12CF12CA92EB12CC5010E2C02C042
:100EC000959587950A94E2F780FD0BC0F601808125
:100ED0009181A281B381F80180839183A283B3833E
:100EE00040C0FE8DF533E9F12FA1211129C0D601B3
:100EF00058962D913D914D915C915B97F4016081E5
:100F00007181828193810E941E38D8012D913D917B
:100F10004D915C910E941E38F80160837183828339
:100F20009383F2E0EF16F104E1F4A30192010E9431
:100F30001E38D8016D937D938D939C93139711C0A8
:100F4000F6012081318142815381D8016D917D91DB
:100F50008D919C910E941E38F80160837183828379
:100F60009383FFEFEF1AFF0A24E0C20ED11C0C5F3F
:100F70001F4F34E0830E911C63E0E616F10409F084
:100F80009CCF72CF67ED75E087E00E94A22788238F
:100F900009F407C58B8D811103C01E8E1D8E2BC0D9
:100FA00020E030E080E090E0AB8D4A2F50E0BA01C5
:100FB000082E02C0759567950A94E2F760FD0EC091
:100FC000F901E757FA4FC788D08CE18CF28CF90110
:100FD000E853FA4FC786D08AE18AF28A01962C5FDD
:100FE0003F4F8330910519F705C08091C9058230C4
:100FF00008F0C7C41E8E1091C905103521F4BB8DB1
:10100000B111C1C440C2ED8DE23009F03CC21111F2
:1010100004C0FB8DF11137C228C020E030E0A901E7
:101020006091D3057091D4058091D5059091D60536
:101030000E941339882309F4A8C41C3809F40EC28D
:1010400040F41230A1F01330A9F0113009F01BC2A6
:1010500009C01E3809F402C208F4FDC11F3809F4A2
:10106000FAC111C22B8D21110EC21D8E0CC23C8DF6
:1010700034603C8F6B8D662309F400CE9DA1892FCF
:1010800090E098A78FA3BEA1AB2FB0E0BBA7AAA703
:1010900081E090E08C010EA002C0000F111F0A94A5
:1010A000E2F70DA002C0880F991F0A94E2F7082BFF
:1010B000192B862F90E080239123892B09F467C494
:1010C0008FA198A5880F991F880F991FFC01E853DD
:1010D000FA4FDC01A757BA4F57962D913D914D918C
:1010E0005C915A9765A576A587A590A90E941D38A1
:1010F0006B017C018AA59BA5880F991F880F991FFA
:10110000FC01E853FA4FDC01A757BA4F57962D91CF
:101110003D914D915C915A9765A576A587A590A9BB
:101120000E941D382B013C0127FEE5C0E89427F8FA
:101130004CE050E065EF75E080EA95E00E94E03C0D
:10114000892B11F481E233C48091CB058130B1F455
:1011500023E333E34BEC51E46091EC057091ED0532
:101160008091EE059091EF050E94753B6093EC0530
:101170007093ED058093EE059093EF058090EC055C
:101180009090ED05A090EE05B090EF0520E030E0E6
:1011900040E850E4C501B4010E94753BA5019401EB
:1011A0000E94753B4B015C01A7019601C701B60186
:1011B0000E94753B9B01AC01C501B4010E941D3822
:1011C0004B015C01A3019201C301B2010E94753B76
:1011D0009B01AC01C501B4010E941D384B015C01AB
:1011E00020E030E0A9010E94133987FDD2C3C50178
:1011F000B4010E94143C4B015C01A3019201C701A0
:10120000B6010E94B9149B01AC01C501B40190580C
:101210000E941D394B015C018091C905833021F486
:10122000B7FAB094B7F8B0948091EC059091ED05C1
:10123000A091EE05B091EF058F8F98A3A9A3BAA353
:1012400020E030E0A901BC01CD010E94133987FFE5
:1012500011C0B7FAB094B7F8B0948F8D98A1A9A136
:10126000BAA1B0588093EC059093ED05A093EE05DC
:10127000B093EF050FA118A5000F111F000F111F4C
:1012800004531A4FA5019401C301B2010E94753B9A
:101290009B01AC01C701B6010E941D3820E030E07F
:1012A00040E05FE30E94753BD8011B966D937D93F0
:1012B0008D939C931E970AA51BA5000F111F000F6D
:1012C000111F04531A4FA5019401C701B6010E94D2
:1012D000753B9B01AC01C301B2010E941E3820E0A6
:1012E00030E040E05FE30E94753BF801638774875C
:1012F00085879687C8C0FF8D8F2E912C08211921D4
:10130000012B09F448C321EF22228091CB058130C3
:1013100009F45AC00AA51BA5000F111F000F111FC9
:1013200004531A4FD8011B962D913D914D915C911C
:101330001E97C301B2010E941D382B013C018FA1F1
:1013400098A5880F991F880F991FFC01E453FA4F45
:101350005F012385348545855685C701B6010E9406
:101360001D38A30192010E94B9146B017C01D801C0
:101370001B962D913D914D915C911E97F5016385D2
:101380007485858596850E94B9144B015C01609334
:10139000EC057093ED058093EE059093EF059B01AE
:1013A000AC01C701B6010E941D386B017C01E894B5
:1013B000F7F82AE037ED43EA5BE3C701B6010E9484
:1013C000353B18165CF15FC088ECA82E85E0B82E7E
:1013D00000E010E0C401002E02C0959587950A94A4
:1013E000E2F780FF12C023E333E34BEC51E4D50175
:1013F0001F966D917D918D919C9152970E94753BA6
:10140000F5016787708B818B928B0F5F1F4FF4E024
:10141000AF0EB11C03301105E9F67CCF20E030E0BF
:1014200040E05FE3C701B6010E94353B18160CF49B
:1014300089CE2FE632E143E85AE3C501B4010E94A8
:10144000753B9B01AC01C701B6010E94353B1816E4
:101450000CF478CE18C02C8D20612C8F1E581230C1
:1014600018F43C8D38603C8F6B8D662309F406CCF4
:101470004CE050E065EF75E080EA95E00E94E03CCA
:10148000892B09F45FCE2C8D21708C8D80FF03C0D9
:10149000C1018E7D03C0C1018E7D9C7FAD8DA111E8
:1014A000937E892B09F079C23E01BDE06B0E711C61
:1014B00089E0F30111928A95E9F7222379F18BA152
:1014C0009CA1867B892B09F06AC28091C80585336F
:1014D00011F0811164C28091930590919405A091BF
:1014E0009505B0919605898B9A8BAB8BBC8B9091AF
:1014F000910580919205892B8D8B68EC75E0C30175
:101500000E94F00C811153C28CE0E5EFF5E0A0EAF7
:10151000B5E001900D928A95E1F721C280914207D2
:101520001091920581FF26C09091C905915093308A
:1015300018F0FC8DF064FC8F2B8D222339F03D8D4B
:10154000323021F46C8D60686C8F14C0103191F4CE
:101550009091890591508C8D8074933030F488235C
:1015600049F08C8D80628C8F05C0811103C09C8DE9
:1015700090629C8F8091E4059091E505A091E6052D
:10158000B091E70580939C0590939D05A0939E05DF
:10159000B0939F058091CA0580938A05882311F036
:1015A00088E08D8B8091D3059091D405A091D505CD
:1015B000B091D6058093970590939805A0939905CF
:1015C000B0939A058D879E87AF87B88BC090F00542
:1015D000D090F105E090F205F090F305A701960197
:1015E0006091930570919405809195059091960571
:1015F0000E9413390C8D0074811103C0AC8DA5FFBE
:1016000020C0112371F0BC8DB7FD0BC0002321F069
:1016100040E050E0BA0102C0B701A601812F0E944C
:10162000582A8091F0059091F105A091F205B091B2
:10163000F3058093930590939405A0939505B0933B
:10164000960501110CC08091930590919405A0918D
:101650009505B0919605898B9A8BAB8BBC8B80914D
:10166000F40580939B058091D2059091920598177F
:1016700051F049895A896B897C890E94582A809146
:10168000D205809392059D8980919205892B8D8B3F
:101690008091D10590919105981771F00E94F50104
:1016A0008091D105811103C01092910505C09091E0
:1016B0009105892B809391059D8980919105892BB6
:1016C0008D8B8091C805843051F46091E80570914C
:1016D000E9058091EA059091EB050E94F612809150
:1016E000CD0580938D058091CB0580938B05ED8D85
:1016F000E33071F58091CE0580938E05811108C08D
:101700001092FD051092FE051092FF051092000642
:10171000C090FD05D090FE05E090FF05F09000061A
:10172000A70196016091C4057091C5058091C60519
:101730009091C7050E941339882351F0C092C405C7
:10174000D092C505E092C605F092C7050E94943577
:101750008091CF0590918F05981769F080938F0540
:101760008CE0FE013196ACEAB5E001900D928A95CD
:10177000E1F70E9494358091CC0580938C0580918F
:10178000C8058632F1F138F48C3109F18E31F9F067
:101790008A3069F04FC08C35D1F1863609F441C0EA
:1017A000883209F047C060EA75E087E02DC067ED38
:1017B00075E08E8D0E94032680918F05FE8D8F131C
:1017C00039C08CE0E7EDF5E0ACEAB5E025C08D89E5
:1017D00081608D8B2D8D222329F0B30185EF95E05B
:1017E0000E94DE0FB30187ED95E00E94DE0F8CE0D2
:1017F000E7EDF5E0A0EAB5E001900D928A95E1F7FA
:1018000019C060EA75E086E00E94032613C08CE0F0
:10181000E5EFF5E0A8EBB5E001900D928A95E1F7D0
:1018200007C08CE0E8EBF5E0DF011D928A95E9F74F
:101830000E9494358091C90580938905803509F40B
:1018400048C0BD8DB23009F044C0813029F081110B
:1018500009C08D8981608D8BB30185EF95E00E9471
:10186000DE0F29C082508230D8F4E090EC05F09071
:10187000ED050091EE051091EF05EC8DE2FB2224C1
:1018800020F82F9289A4AEA0CDA027ED35E040EA44
:1018900055E0B30185EF95E00E940D100F900BC04D
:1018A0008D8984608D8B4C8DB30185EF95E00E940E
:1018B0002F1381110AC08CE0E5EFF5E0A0EAB5E056
:1018C00001900D928A95E1F704C0813011F40E94D5
:1018D000CC028091D00580939005882309F467C0DD
:1018E0000E94BD1F8091900590910106833041F4C4
:1018F000923099F188E00E9435360E942A1E2DC050
:1019000081E08093890510928D0510928C051092CC
:101910008A0510928F05109292051092910584E627
:10192000809308068093090680930A06923091F00E
:101930006CEA75E080E00E94A227882391F10E9462
:10194000943540E050E0BA0180E00E94302A80E007
:101950000E94E70188E00E9451201092900580E0EB
:1019600026C081E024C082E022C088E120C089E155
:101970001EC084E01CC08BE11AC085E218C084E15F
:1019800016C08EE114C08FE112C086E110C080E263
:101990000EC082E20CC083E20AC084E208C080E18B
:1019A00006C087E004C01A8E1C8E0C940C03AB9604
:1019B0000FB6F894DEBF0FBECDBFDF91CF911F9160
:1019C0000F91FF90EF90DF90CF90BF90AF909F90DE
:1019D0008F907F906F905F904F903F902F900895E1
:1019E0000F931F93CF93DF938C01FB018385948525
:1019F000A585B685F80180839183A283B383808512
:101A00008460808780914207EB01AD9685FD09C017
:101A1000B801CE010E94DE0FC0910106C11108C0BD
:101A200009C0CE010E94CE35882391F3CFE00DC0CE
:101A3000C0E00BC00E942C17892BD1F380E2809369
:101A400001060E94B82D0E94802A8C2FDF91CF9131
:101A50001F910F910895EBE6F0E08081897F8083EC
:101A6000E8E6F0E080818E7F8083089584B1897FED
:101A700084B985B1866085B98091420783FF0BC028
:101A800080916B00866080936B008091680081601C
:101A90008093680008950C942B0DEF92FF920F93A2
:101AA0001F93CF93DF93C3B1C6708091420786FD29
:101AB00002C086E0C827CC23C1F000E010E0D0E0EF
:101AC000EE24E394F12C802F0E9429298C2339F0F5
:101AD000C701002E01C0880F0A94EAF7D82B0F5FC8
:101AE0001F4F0330110579F701C0D0E08D2FDF9132
:101AF000CF911F910F91FF90EF9008951F920F9239
:101B00000FB60F9211242F933F934F935F936F93D0
:101B10007F938F939F93AF93BF93EF93FF938091A6
:101B20000106813049F080910201811105C00E94B7
:101B30009B1381E00E94F337FF91EF91BF91AF912A
:101B40009F918F917F916F915F914F913F912F91D5
:101B50000F900FBE0F901F9018952F923F924F92AB
:101B60005F926F927F928F929F92AF92BF92CF922D
:101B7000DF92EF92FF920F931F93CF93DF93CDB736
:101B8000DEB7A0970FB6F894DEBF0FBECDBF909121
:101B9000020691117AC1782E9E01235F3F4F3A8F42
:101BA000298F89E0D9011D928A95E9F786E08D8B0E
:101BB00021E2A22E27E0B22EFE0176964F0100E030
:101BC00010E0C12CD12C7601272D30E03C8F2B8FDB
:101BD000802F0E941529D4018D934D018B8D9C8DF2
:101BE000002E02C0959587950A94E2F780FF1DC0EC
:101BF00020E030E040EC5FEBF50160817181828193
:101C000093810E94753B362E472E582E692E262F23
:101C1000372F482F592FC701B6010E94353B1816A0
:101C200024F0C32CD42CE52CF62C0F5F1F4FF4E0CE
:101C3000AF0EB11C0330110559F680904807909003
:101C40004907A0904A07B0904B0794E0692E01E045
:101C50004424439461E171E0CE0101960E94B335C2
:101C600080914307282F30E03E8F2D8FFE01319663
:101C700081E1282E81E0382E38A22F8E20E030E03E
:101C8000512C10E0B701A60170588B8D9C8D022E4F
:101C900002C0959587950A94E2F780FF29C0539476
:101CA000AF8DB8A11D921D921D921C9213978D8D20
:101CB0009E8D022E02C0959587950A94E2F780FFCB
:101CC00003C0002319F007C0002329F0C082D1828D
:101CD000E282F38204C0408351836283738386E18E
:101CE00090E08C0F9D1F820F931FDC018C91182BAD
:101CF0002F5F3F4F34968F8D98A1049698A38F8FB6
:101D00002330310511F6652D70E080E090E00E94EF
:101D1000C5390E94143C9B01AC0110930706C50114
:101D2000B4010E94753B6D877E878F87988BBE01BB
:101D3000635F7F4FCE0101960E945E1894E09093FE
:101D400005060E94B82D0E94802A0023E9F00E9417
:101D50004D0DFE01769620E030E090E06191462F37
:101D6000412359F0AC01022E02C0559547950A94C3
:101D7000E2F740FF02C0609516232F5F3F4F2330EC
:101D8000310561F7109307060E94B82D8091030179
:101D9000847331F11091030114FF03C086E00E94A7
:101DA000F33715FF03C087E00E94F337011106C027
:101DB0000E944D0D872139F088E003C012FF03C057
:101DC00089E00E94F33780910201882329F00E9464
:101DD0009B130E942A1E59C084E00E94E93704C068
:101DE000812F8C7109F0B1CF0E943F2D80914C075B
:101DF00090914D070E94AE140425C9F020E030E018
:101E000040EA50E460914E0770914F07809150076F
:101E1000909151070E94753B6B017C0180904407B3
:101E200090904507A0904607B090470710C0C0901B
:101E30004E07D0904F07E0905007F09051078090E8
:101E4000480790904907A0904A07B0904B076A94C2
:101E5000611000CF80E090E02B8D3C8D082E02C0F9
:101E6000359527950A94E2F720FF06C0D1011D920F
:101E70001D921D921C9213970196B4E02B0E311CFB
:101E80008330910549F710920506A0960FB6F89495
:101E9000DEBF0FBECDBFDF91CF911F910F91FF909D
:101EA000EF90DF90CF90BF90AF909F908F907F90FA
:101EB0006F905F904F903F902F9008950E94CE3585
:101EC0008823E1F081E08093040680910106883048
:101ED00039F00E949B1382E00E94F3370C942A1E73
:101EE00088E00E9435360E942A1E809102068111E8
:101EF00005C0809101068111F6CFEBCF08950E94B5
:101F0000EF248091520790E00E9408290E94722DD0
:101F10000E941A358CE0E1E1F1E0DF011D928A9523
:101F2000E9F77894109201068091420784FF03C07C
:101F300081E08093010681E0E82E86E0F82E91E1B1
:101F4000D92EC4E605E011E0DCE080910106F7013E
:101F50009D2D11929A95E9F780930106C09308068A
:101F6000C0930906C0930A06D801ED2F1D92EA9589
:101F7000E9F71092040110920301109202011092ED
:101F80000101109200010E94DB250E94BA0280919B
:101F900052070E9441290E94E4010E94360D0E94CE
:101FA000641C0E9406170E943F2D0E94201B0E9465
:101FB000CC020E9487200E942E1FC7CF0F931F9331
:101FC000CF93DF93EC018B018091420785FF07C01F
:101FD00080910106803219F0CE010E945E0F80913F
:101FE00001068230A9F00E942A1E8091020681110A
:101FF0000FC00E945517882319F00E94841CF3CF4C
:10200000B801CE01DF91CF911F910F910C945E1812
:10201000DF91CF911F910F9108952F923F924F9290
:102020005F926F927F928F929F92AF92BF92CF9268
:10203000DF92EF92FF920F931F93CF93DF93CDB771
:10204000DEB7E0970FB6F894DEBF0FBECDBF988B1A
:102050008F877E876D875A8B498B3901E986FA868F
:102060000B871C878D8A26962FAD26972B8B34E005
:10207000C39E60011124CA018C0D9D1D9A8F898F0A
:10208000D301AC0DBD1DBC8FAB8F2D903D904D90FD
:102090005C90FC012081318142815381C201B101F8
:1020A0000E941E386D8F7E8F8F8F98A3F4E0AF9EB5
:1020B0008001112429893A89200F311F3AA329A3CD
:1020C000C301800F911F9CA38BA3DC018D909D9079
:1020D000AD90BC90F9012081318142815381C501CD
:1020E000B4010E941E386DA37EA38FA398A7D201CE
:1020F000C101B0588D839E83AF83B887D501C401D9
:10210000B05889839A83AB83BC83EF85F889EC0D43
:10211000FD1D2D8D3E8D4F8D58A160817181828175
:1021200093810E941D386B017C01EF85F889E00FD7
:10213000F11F2DA13EA14FA158A56081718182811F
:1021400093810E941D384B015C01A70196016D81AE
:102150007E818F8198850E94753B2B013C01A501F2
:10216000940169817A818B819C810E94753B9B01DE
:10217000AC01C301B2010E941E382B013C01A50134
:1021800094016D817E818F8198850E94753B4B0102
:102190005C01A701960169817A818B819C810E94F3
:1021A000753B9B01AC01C501B4010E941D38A30120
:1021B00092010E949D386B017C019B89992399F0C3
:1021C0002DEB37E346E055EBC701B6010E94353BE6
:1021D00087FD1DC02BED3FE049EC50E4C701B6017F
:1021E0000E941D3812C02DEB37E346E055E3C701CE
:1021F000B6010E941339181654F02BED3FE049EC5C
:1022000050E4C701B6010E941E386B017C0180902A
:10221000360790903707A0903807B0903907298586
:102220003A854B855C85CA01B9010E941E38A5011B
:1022300094010E941D389B01AC01C501B4010E94AC
:10224000753B0E94143C4B015C0120E030E040E013
:102250005FE3C701B6010E94753B29853A854B852E
:102260005C850E94753B9F77A50194010E941D39F2
:102270000E94023A0E9496397C8B6B8BDB01AB2B60
:10228000F1F46D857E858F859889E0960FB6F89478
:10229000DEBF0FBECDBFDF91CF911F910F91FF9099
:1022A000EF90DF90CF90BF90AF909F908F907F90F6
:1022B0006F905F904F903F902F900C94DE0FED85C4
:1022C000FE8510854B01A12CB12C13FF16C0C50152
:1022D000B4010E94C5399B01AC01AD85BE856D91ED
:1022E0007D918D919C910E94753BED85FE8560836B
:1022F000718382839383177F1087C501B4010E9485
:10230000C5392B013C019B01AC01C701B6010E94FC
:102310001D3969877A878B879C872D89F4E02F9FE9
:102320004001112409891A89080D191DEF85F889C2
:10233000E80DF91DD8012D913D914D915C91608181
:102340007181828193810E941D38A30192010E94B4
:102350001D396DA77EA78FA798AB29853A854B8538
:102360005C85CA01B9010E94753B9B01AC0160E02C
:1023700070E080E090E40E941D386B017C012BEA44
:102380003AEA4AE25EE369857A858B859C850E94FC
:10239000753B4B015C0120E030E040E850E4C701B0
:1023A000B6010E941E389B01AC01C501B4010E9418
:1023B000753B6D8B7E8B8F8B988F20E030E040E0FB
:1023C0005FE3C701B6010E94753B69A77AA78BA797
:1023D0009CA7712C22242394312CEB89FC892E1686
:1023E0003F0609F44ECFBBE0B71508F444C029A559
:1023F0003AA54BA55CA569817A818B819C810E945D
:10240000753B6B017C012D893E894F89588D6D810B
:102410007E818F8198850E94753BA70196010E945D
:102420001E387B016C0129A53AA54BA55CA56D81E1
:102430007E818F8198850E94753B4B015C012D89BF
:102440003E894F89588D69817A818B819C810E9458
:10245000753B9B01AC01C501B4010E941D386D8321
:102460007E838F83988773944701560189829A826D
:10247000AB82BC8262C0B10180E090E00E94C539AD
:1024800029853A854B855C850E94753B6B017C01F3
:102490000E94183969837A838B839C83C701B601B4
:1024A0000E94063C4B015C01EB8DFC8DC080D1800D
:1024B000E280F380F7FAF094F7F8F094ABA1BCA1B6
:1024C0004D905D906D907C9029813A814B815C812B
:1024D000C701B6010E94753B6D837E838F83988709
:1024E000A5019401C301B2010E94753B9B01AC019F
:1024F0006D817E818F8198850E941E386D837E83D9
:102500008F839887A5019401C701B6010E94753B8E
:102510006B017C0129813A814B815C81C301B2014D
:102520000E94753B9B01AC01C701B6010E941D389A
:1025300069837A838B839C83712C2D813E814F81AB
:1025400058856D8D7E8D8F8D98A10E941E38E98DE6
:10255000FA8D608371838283938329813A814B81D1
:102560005C816DA17EA18FA198A50E941E38A9A1B2
:10257000BAA16D937D938D939C9313972DA53EA542
:102580004FA558A9F80160817181828193810E94D1
:102590001E38D8016D937D938D939C9313976D8511
:1025A0007E8589899A890E94DE0F809102068111B9
:1025B00004C0BFEF2B1A3B0A10CFE0960FB6F89479
:1025C000DEBF0FBECDBFDF91CF911F910F91FF9066
:1025D000EF90DF90CF90BF90AF909F908F907F90C3
:1025E0006F905F904F903F902F900895CF93DF931F
:1025F00000D000D0CDB7DEB720910106223099F08F
:1026000069837A838B839C830E94BD1F40E069812C
:102610007A818B819C810F900F900F900F90DF91AA
:10262000CF910C947D140F900F900F900F90DF912D
:10263000CF9108950E942B0D83E00E94AD0D83E0A1
:102640000E94AD0D0E942A1E80910206811106C0D3
:102650000E94CC020E94201B0C94360D0895EF922C
:10266000FF920F931F93CF9320910106223009F41C
:102670005BC0C42F7B018C010E94BD1F80910206AC
:10268000811113C010920606C3FB882780F90E94AF
:10269000521C0E94691C882351F084E00E94F33789
:1026A0000E942A1E80E00E94521C82E03EC0B701B8
:1026B000C8010E94DE0F81E08093040182E00E9445
:1026C00035360E942A1E809102068111EECF80913C
:1026D00001068111F6CF80910401813081F4C4FF9D
:1026E0000AC08CE0E1E1F1E0A5E0B1E001900D92DB
:1026F0008A95E1F707C085E00E94F33703C081E0C7
:10270000809306061092040180E00E94521C0E94F1
:102710002A1E0E943F2D0E9406170E94201B81E066
:1027200090910606911101C080E0CF911F910F9109
:10273000FF90EF9008958091030184FD1DC080E11A
:102740000E9435360E943B290E94E20190910106C9
:10275000892F8C7221F480910506867069F094307F
:1027600031F480910201811105C086E001C083E04F
:102770000E94F3370C94982A08954F925F926F92BB
:102780007F92AF92BF92CF92DF92EF92FF920F9320
:102790001F93CF93DF936C01FB015A018081D60117
:1027A000A80FB11D9C918D019D3231F40E5F1F4F1A
:1027B00011969C91D1E00AC09B3219F00F5F1F4F18
:1027C00004C00E5F1F4F11969C91D0E0512C612CDC
:1027D000C0E020E030E0A901780160ED762E790EAE
:1027E00089E08715D8F06394A8E0A61598F05110F9
:1027F000C150A5E0B0E00E94C63CDC01CB01880FCF
:10280000991FAA1FBB1F9C01AD01270D311D411D42
:10281000511D0BC0511009C0CF5F07C0BEEF7B1226
:1028200009C0511007C0552453940F5F1F4FD701A3
:102830009C91D2CF662009F450C07F01CA01B90132
:102840000E94C5392B013C0120E030E0A9010E9423
:102850001339882349F1CF3F64F42AE037ED43E28E
:102860005CE3C301B2010E94753B2B013C01CE5FCA
:10287000F2CFCF3F59F42DEC3CEC4CEC5DE3C301BF
:10288000B2010E94753B2B013C010EC0CC2361F0CC
:1028900020E030E040E251E4C301B2010E94753B08
:1028A0002B013C01C150F2CFDD2351F077FA709437
:1028B00077F87094F501408251826282738206C07B
:1028C000D5014D925D926D927C9213970C191D0962
:1028D0000150F701008381E001C080E0DF91CF91DA
:1028E0001F910F91FF90EF90DF90CF90BF90AF902E
:1028F0007F906F905F904F9008950F931F93CF93A9
:10290000C42F20E030E040EA51E40E94753B0E9471
:10291000FC380E9496398B0101151105D9F0809180
:102920000206811117C0C11103C00E942A1E06C0F1
:102930000E948C1C8091030681FD0CC02FEF80E764
:1029400092E0215080409040E1F700C0000001502B
:102950001109E2CFCF911F910F910895009741F097
:10296000EFE9FFE03197F1F700C000000197F6CFE3
:1029700008958F929F92AF92BF92CF92DF92EF9283
:10298000FF9269017A019B01AC010E94753B4B01EA
:102990005C01A7019601C701B6010E94753B9B012E
:1029A000AC01C501B4010E941E38FF90EF90DF908A
:1029B000CF90BF90AF909F908F900C94143C4F920B
:1029C0005F926F927F92AF92BF92CF92DF92EF921F
:1029D000FF920F931F93CF93DF93EC018C015C0167
:1029E0008CE0A80EB11CC12CD12C7601F8014190CD
:1029F0005190619071908F0120E030E0A901C301F6
:102A0000B2010E941339882371F0A3019201C3011E
:102A1000B2010E94753B9B01AC01C701B6010E9447
:102A20001E386B017C010A151B0501F7C701B601B1
:102A30000E94143C2B013C019B01AC0160E070E062
:102A400080E89FE30E941D396B017C019B01AC0172
:102A5000688179818A819B810E94753B6883798333
:102A60008A839B83A70196016C817D818E819F81E2
:102A70000E94753B6C837D838E839F83A7019601A3
:102A8000688579858A859B850E94753B68877987EB
:102A90008A879B87C301B201DF91CF911F910F916C
:102AA000FF90EF90DF90CF90BF90AF907F906F90AE
:102AB0005F904F9008956F927F928F929F92AF9206
:102AC000BF92CF92DF92EF92FF920F931F93CF931B
:102AD000DF93EB018C015B018CE0A80EB11C89E94E
:102AE000682E96E7792E26E9822E3EE7932EC9902E
:102AF000D990E990F99020E030E0A901C701B60132
:102B00000E9413398823B9F0A7019601F80160816A
:102B10007181828193810E941D396B017C01E8944F
:102B2000F7F8A7019601B301C4010E94133987FD8C
:102B300002C0360147010C5F1F4FCA15DB05B9F60D
:102B4000B301C401DF91CF911F910F91FF90EF90DE
:102B5000DF90CF90BF90AF909F908F907F906F90BD
:102B600008952F923F924F925F926F927F928F9231
:102B70009F92AF92BF92CF92DF92EF92FF920F930C
:102B80001F93CF93DF93C0913B01C11101C0C0E1FE
:102B9000C150D0913901CD1709F41BC1EC2EF12C95
:102BA00022E3C29F80011124035C1E4FF801A68816
:102BB000B788C08CD18C628D738D848D958D9B016F
:102BC000AC010E941E38F801268D378D40A151A11D
:102BD0000E94753B4B018C019B01AC01B501C60104
:102BE0000E94133987FD02C05401680182E38E9D63
:102BF000F0018F9DF00D1124E35CFE4FC501D6015D
:102C0000828B938BA48BB58BC11101C0C0E1C150E5
:102C1000CD1761F022E32E9DC0012F9D900D112450
:102C20009C01235C3E4F7901D2E333C080913C018B
:102C3000D8135EC00E94942D5BC0AC2EB12CDA9DDF
:102C4000C001DB9D900D1124FC01E35CFE4F6F0180
:102C5000C11101C0C0E1C15080913C01C81302C044
:102C60000E94942DDA9D8001DB9D100D1124035CE0
:102C70001E4FF80186889788A08CB18CA50194011D
:102C800062897389848995890E941339811106C0EC
:102C9000760180913901C813D0CF2AC0F801628D26
:102CA000738D848D958D9B01AC010E941E38F801B7
:102CB000268D378D40A151A10E94753BF7012289D5
:102CC0003389448955890E941E382B013C01A50196
:102CD00094010E941339F80187FF05C0428A538A84
:102CE000648A758AD5CF828A938AA48AB58AD0CF1E
:102CF000D0913901F2E3DF9F80011124035C1E4F64
:102D0000C1E0CD0FC03109F4C0E020903B0182E367
:102D1000382EC21509F45BC0CC2ED12C3C9CC001CE
:102D20003D9C900D11249C01235C3E4F7901F801DC
:102D30004288538864887588F90182889388A488BA
:102D4000B588A5019401C301B2010E94133987FF20
:102D500024C0F801628D738D848D958D9B01AC012B
:102D60000E941E38F801268D378D40A151A10E9486
:102D7000753B9B01AC01C301B2010E941E382B01BF
:102D80003C01A50194010E94133987FF06C0F70199
:102D9000428A538A648A758ADC2F3C9CF0013D9CF0
:102DA000F00D1124E35CFE4F26893789408D518D4B
:102DB00062897389848995890E941339811101C0C0
:102DC000DC2FCF5FC03109F4C0E08701A2CFD093E0
:102DD0003901DF91CF911F910F91FF90EF90DF901C
:102DE000CF90BF90AF909F908F907F906F905F90AB
:102DF0004F903F902F90089510923C0110923B010C
:102E000081E080933A011092390108958CE1EDE15F
:102E1000F1E0DF011D928A95E9F70C94FC16909180
:102E20003C0180913B01891769F081E0890F803175
:102E300009F480E020913901921302C08093390196
:102E400080933C01089580913B0122E3829FC00161
:102E50001124835C9E4F089580913C0190913B0129
:102E6000981739F022E3829FC0011124835C9E4FA2
:102E7000089580E090E00895E0913C01EF5FE0313B
:102E800009F4E0E080913B01E81759F082E3E89F04
:102E9000F0011124E35CFE4F62897389848995896E
:102EA000089560E070E0CB01089581E020913C013D
:102EB00090913A01291380E00895BF92CF92DF925A
:102EC000EF92FF920F931F93CF93DF937C01FC014E
:102ED00002A513A5D4A5C5A5818980FF18C060915E
:102EE000090670E080E090E00E94C7392AE037EDE3
:102EF00043E25CE30E94753B9B01AC01B8018D2F5E
:102F00009C2F0E94753B8B01D82FC92F2DC082FDAD
:102F100017C06091080670E080E090E00E94C73919
:102F20002AE037ED43E25CE30E94753B9B01AC0174
:102F3000B8018D2F9C2F0E94753B8B01D82FC92F74
:102F4000F701B6A0C7A0D0A4F1A42B2D3C2D4D2D88
:102F50005F2DB8018D2F9C2F0E94353B181624F44D
:102F60000B2D1C2DDD2DCF2D20E030E040E85FE360
:102F7000B8018D2F9C2F0E94353B181624F000E0DD
:102F800010E0D0E8CFE3B8018D2F9C2FDF91CF91D7
:102F90001F910F91FF90EF90DF90CF90BF90089519
:102FA0005F926F927F928F929F92AF92BF92CF92D9
:102FB000DF92EF92FF920F931F93CF93DF93C09115
:102FC0003C0150903B0189E9F82E06E716E9DEE75F
:102FD00092E3692EC51509F455C0AC2EB12C6A9C3C
:102FE000C0016B9C900D11249C01235C3E4F690134
:102FF000C9010E945D17762E872E982EE92E2F2D5F
:10300000302F412F5D2F0E94353B18164CF42F2D89
:10301000302F412F5D2F6F2D702F812F9D2F08C0D6
:10302000272D382D492D5E2D672D782D892D9E2D2C
:103030000E94753BF601668B778B808F918F6A9C1F
:1030400080016B9C100D1124035C1E4FF801A2A09F
:10305000B3A0C4A0D5A0A601950166897789808D0B
:10306000918D0E94353B18162CF4F801A68AB78A78
:10307000C08ED18ECF5FC03109F4C0E0F72C84013F
:10308000DE2DA8CF8F2D902FA12FBD2F809335013E
:1030900090933601A0933701B0933801DF91CF911F
:1030A0001F910F91FF90EF90DF90CF90BF90AF9066
:1030B0009F908F907F906F905F9008952F923F9296
:1030C0004F925F926F927F928F929F92AF92BF9238
:1030D000CF92DF92EF92FF920F931F93CF93DF93E4
:1030E000CDB7DEB7C454D1090FB6F894DEBF0FBE1A
:1030F000CDBF6B0120913B01222E312C32E3329D5A
:10310000A001339D500D1124BA01635C7E4F7AAF4C
:1031100069AFFB0111923A95E9F7F6013085FB01A1
:10312000318BF6014481558166817781E9ADFAAD35
:1031300046A757A760AB71AB31FF04C03CE0E1E1AB
:10314000F1E003C03CE0EDE1F1E0DE0159960190D1
:103150000D923A95E1F78BAB9CABBE016B5D7F4F57
:103160007EAF6DAFCE01499698AF8FAB8DEFE82E55
:1031700086E0F82EFE013D96FCAFEBAF82E3289F80
:10318000B001112423967FAF6EAF2397FEABEDAB5A
:1031900000E010E0B12C82E3829D9001839D300D10
:1031A0001124C901835C9E4FFC013C962196FFAF20
:1031B000EEAF21974C01F0E18F0E911CEBA9FCA919
:1031C0006191719181919191FCABEBAB2596FFAE32
:1031D000EEAE2597F70120813181428153810E9413
:1031E000753B0E94423BEDADFEAD619371938193BF
:1031F0009193FEAFEDAFEFA9F8AD41905190619082
:103200007190F8AFEFAB64197509860997092B0126
:103210003C0197FF07C0442455243201461A570A3F
:10322000680A790A2396EEADFFAD2397E00FF11FF0
:10323000E35CFE4F40825182628273822196EEAD42
:10324000FFAD21972081318142815381421653067F
:103250006406750610F429013A012196EEADFFAD22
:1032600021974082518262827382F4E0EF0EF11C5A
:103270000E94C7392596EEADFFAD2597208131819B
:10328000428153810E941D39EDA9FEA9619371937A
:1032900081939193FEABEDAB20E030E0A9010E9459
:1032A000133987FF07C08B2D0E941F29F4019081DD
:1032B000892B8083B3940C5F1F4F0C30110509F0EC
:1032C0007DCF82E3829D8001839D100D1124035CDC
:1032D0001E4FF80184859585A685B785892B8A2B95
:1032E0008B2B09F490C1CE010D960E94DF14F801DA
:1032F000668F778F80A391A3BE01635F7F4F85E1C7
:1033000097E00E945B15F801628F738F848F958F11
:10331000BE01635F7F4F89E097E00E945B15F80173
:1033200066A377A380A791A7F188F0FC13C0F601EC
:103330006081718182819381F80162A773A784A75C
:1033400095A7F3FE0BC0268D378D40A151A10E9499
:10335000753BF80162A773A784A795A790913B01DD
:1033600080913C01981711F0F1FE0DC082E3829D1F
:10337000F001839DF00D1124E35CFE4F128A138A45
:10338000148A158A54C029E231E03CAB2BAB8E0184
:103390000F5F1F4FBE01675E7F4F7AAB69ABC12CD9
:1033A000D12C76010DAB1FABEBA9FCA981909190BC
:1033B000A190B190FCABEBABEBADFCAD419051906B
:1033C00061907190FCAFEBAFA3019201C501B40114
:1033D0000E94753B9B01AC01C701B6010E941D38DC
:1033E0006B017C01A5019401C301B2010E941D384B
:1033F000F80161937193819391938F012BAD3CAD53
:1034000069A97AA92617370779F62FEE3FEF4FE71C
:103410005FE3C701B6010E94353B18166CF482E3E6
:10342000829DF001839DF00D1124E35CFE4F12A2FA
:1034300013A214A215A274C02FEE3FEF4FE75FEB6B
:10344000C701B6010E94133987FF11C082E3829D34
:10345000F001839DF00D1124E35CFE4F89E996E7AE
:10346000A6E9BEE782A393A3A4A3B5A359C08DA9DF
:103470009FA90E94DF146DA97FA985E197E00E94B2
:103480005B154B015C01A701960160E070E080E8EC
:103490009FE30E941D3820E030E040E05FE30E949F
:1034A000753B0E94143C6B017C01209132073091E6
:1034B00033074091340750913507C501B4010E948C
:1034C000753BA70196010E94753B4B015C01A7016A
:1034D000960160E070E080E89FE30E941D389B0148
:1034E000AC01C501B4010E941D397B018C0120E0B3
:1034F00030E0A9010E94133987FF04C0E12CF12CB0
:1035000000E010E082E3829DF001839DF00D112424
:10351000E35CFE4FA701B80142A353A364A375A3C4
:1035200082E3829D8001839D100D1124035C1E4F58
:10353000F801818981FD69C089AD9AAD0E945D174E
:103540006B017C018090350190903601A09037018D
:10355000B0903801A50194010E94353B18162CF457
:10356000A5019401C501B40104C0A7019601C701DA
:10357000B6010E94753BF801668B778B808F918F27
:1035800082E3829D8001839D100D1124035C1E4FF8
:10359000F80182A093A0A4A0B5A0A501940166891A
:1035A0007789808D918D0E94353B18162CF4F80197
:1035B000868A978AA08EB18EC0923501D09236014C
:1035C000E0923701F09238018CE0FE013D96A9E2CD
:1035D000B1E001900D928A95E1F78CE0FE01B5967D
:1035E000ADE1B1E001900D928A95E1F780913A0149
:1035F00080933B018F5F803109F480E080933A0132
:103600000E94B11502C080E001C081E0CC5BDF4FB9
:103610000FB6F894DEBF0FBECDBFDF91CF911F91E3
:103620000F91FF90EF90DF90CF90BF90AF909F9061
:103630008F907F906F905F904F903F902F90089564
:10364000EDE1F1E0A1E1B1E04D915D916D917C91F1
:103650001397408351836283738314964D915D91D8
:103660006D917C9117974483558366837783189671
:103670008D919D910D90BC91A02D80879187A287FF
:10368000B387089590913B0180913C01981710F009
:10369000815F01C08150891B08950E94942D809103
:1036A0003C01809339010C94B115CF93DF93EC0169
:1036B0008991882319F00E94FF24FACFDF91CF91DE
:1036C0000895CF93DF93FC018491EF012196882325
:1036D00021F00E94FF24FE01F7CFDF91CF910895E2
:1036E000CF93DF93843630F06AE00E947E3CC0E3E3
:1036F000C90F03C0C0E08A3030F06AE00E947E3C0F
:10370000D0E3D90F01C0D0E0805D0E94FF24DD230B
:1037100019F08D2F0E94FF24CC2329F08C2FDF91EC
:10372000CF910C94FF24DF91CF9108958F929F92B7
:10373000AF92BF92CF92DF92EF92FF920F931F93BF
:10374000CF93DF93CDB7DEB72D970FB6F894DEBFDA
:103750000FBECDBF6B017C01042F20E030E0A9013A
:103760000E94133987FF07C08DE20E94FF24F7FAF9
:10377000F094F7F8F094102F123060F020E030E071
:1037800048EC52E4C701B6010E94753B6B017C0115
:103790001250F2CF00FF0AC020E030E040E251E4D6
:1037A000C701B6010E94753B6B017C0120E030E04F
:1037B00040E05FE3C701B6010E941E380E948F39C6
:1037C00010E03AE0832E912CA12CB12C61157105EB
:1037D0008105910591F0EE24E394F12CEC0EFD1E91
:1037E000E10EF11CA50194010E949E3C605DF70171
:1037F0006083B901CA011F5FE9CF80E3101748F465
:10380000E1E0F0E0EC0FFD1FE10FF11D80831F5F91
:10381000F5CF101314C011E0100F80E3FE01E00F8C
:10382000F11D81830CC0101303C08EE20E94FF249F
:10383000FE01E10FF11D80810E94FF241150111142
:10384000F2CF2D960FB6F894DEBF0FBECDBFDF913D
:10385000CF911F910F91FF90EF90DF90CF90BF908D
:10386000AF909F908F9008952091420720FF08C04D
:103870002BE832E441E25DE30E94753B44E001C085
:1038800043E00C94961B2091420720FF08C02BE8D0
:1038900032E441E25DE30E94753B41E001C040E05B
:1038A0000C94961B109212069091420797FD03C04C
:1038B00090E290931206882331F09091120680E2F4
:1038C00089278093120608953D98459A80E00C94CC
:1038D000521C86B1807290911206892708950E9429
:1038E000691C882381F0109204018CE0E1E1F1E091
:1038F000A5E0B1E001900D928A95E1F78091030176
:1039000080648093030108950E942C17892B19F07D
:1039100082E00C9435360895CF93C0910201CC23F8
:10392000B9F081E0809301068C2F0E944120C150A4
:10393000C23018F00E94F9370BC081E00E9451207C
:1039400080E10E94E9378091030184FFFCCFF2CF30
:10395000C0910301CC2309F4F6C0C4FF04C081E088
:103960008093020675C1C0FF05C00E94262381E036
:103970000E94E9378C2F887E09F462C0809101068D
:10398000982F937009F04BC08872A1F080910306C4
:10399000807C81F40E94942D82E0809305068091C2
:1039A0000106803239F4C7FD05C0809103068068A6
:1039B0008093030680910106811103C091E09093EA
:1039C0000306C6FF07C085FD05C0909103069064FD
:1039D00090930306C3FF05C0807E19F480E18093B5
:1039E0000106C5FF1CC086E00E945120809103069D
:1039F00087FD10C090910106903439F483FF07C011
:103A0000837E82608093030602C0903819F080E4C0
:103A10008093010680910306806280930306C7FFAE
:103A20000CC080910106813029F4809103068560E5
:103A30008093030680E88093010688EE0E94E937B0
:103A4000C1FF44C08C2F8876F1F580910106803447
:103A500071F48091030685FD0AC084FF03C01092B3
:103A6000010605C082FF03C0886080930306809131
:103A70000106882381F084FF26C09091030690FF01
:103A800022C0803141F480910B06882321F08860A8
:103A900080930B0618C0109205060E942C17892BE4
:103AA00071F08091030686FD0AC01092030688E03B
:103AB000809301060E94B82D0E94802A04C01092B3
:103AC00003061092010682E00E94E937C2FF3BC064
:103AD00080910106807D909103068823A9F0809152
:103AE0000406811111C097FD0FC00E944D1B8091EB
:103AF000050681FF05C0909103069160909303062F
:103B0000897F809305061CC097FF0AC010920506A6
:103B10000E9406170E943F2D0E94CC020E94201B8B
:103B20008091030685FF08C08F778160809303062C
:103B300080E48093010604C01092030610920106EF
:103B400084E00E94E937C0910101CC2381F10E94F9
:103B5000113830910806C0FF02C084E601C0832FEF
:103B6000C1FD865FC2FD8A50C3FD8F5FC4FD8150D9
:103B7000893C08F088EC8A3008F48AE02091090634
:103B8000C5FF02C094E601C0922FC6FD92E3C7FDB7
:103B900099E1831302C0921751F080930806909325
:103BA000090610920C060E94D0170E944D1BC0916E
:103BB0000001CC2309F445C00E94173890910A06F1
:103BC000C0FF02C084E601C0892FC1FD865FC2FD2F
:103BD0008A50C3FD8F5FC4FD8150893C08F088EC9A
:103BE0008A3008F48AE0891749F0909105069860B8
:103BF0009093050680930A0610920C0680910106A8
:103C0000C5FF0DC0803159F490910B06911102C08F
:103C100092E003C090FF03C0946090930B06C07CB9
:103C200081F0882311F0887161F0C0919105C6FF81
:103C300002C0CF7B01C0C0648C2F0E94E701C093FB
:103C40009105809101068C7F19F0CF910C94B82DCD
:103C5000CF910895CF92DF92EF92FF921F93CF936F
:103C6000DF930E948C1C80910306882309F4EEC028
:103C70000E942C17009771F4C091910580919205D4
:103C8000C82BC0909305D0909405E0909505F090D6
:103C9000960506C0FC01C189C6A4D7A4E0A8F1A876
:103CA0008091420781FF03C080E20E940838DC2F28
:103CB000D07311E0C07490910306992309F4C6C033
:103CC000809102068111C2C090FFBDC080910106A3
:103CD000282F207C09F473C092FD12C010920B06AD
:103CE00040E050E0BA0180E00E94302A80E00E946B
:103CF000E701909103069D7F946090930306A3C013
:103D00008038A9F48BE00E94512040E050E0BA01D5
:103D100080E00E94302A80E00E94E7010E94982AF9
:103D200080910206811192C00E948C1CF9CF8034D0
:103D300049F40E947235811105C0809103068F7D80
:103D4000809303068091030683FF7DC090919205C6
:103D50009923C1F081FD16C08091420781FF06C002
:103D6000809105068860809305060CC0B701A60106
:103D70008D2F0E94302A41E060E070E080E890E4FE
:103D80000E947D1480919105882371F08091030633
:103D900081FD0AC08C2F0E94E70141E060E070E0E5
:103DA00080E89FE30E947D149091030691FD4BC033
:103DB00090619093030682E00E94353644C0909152
:103DC0000B06992391F191FF0DC0809192058823F4
:103DD000B1F040E050E0BA0180E00E94302A109338
:103DE0000B0631C09C7079F18091920581110AC057
:103DF00080910B0683FF03C082E00E94353610924B
:103E00000B0621C08AE00E9451208091420781FF69
:103E100006C080910506886080930506E9CFB7014A
:103E2000A6018D2F0E94302AE3CF8091050683FFE3
:103E30000AC0B701A6018D2F0E94302A8091050685
:103E4000877F809305060E948C1C35CFDF91CF9130
:103E50001F91FF90EF90DF90CF900895CF93DF9365
:103E60008091420783FF0AC00E944D0D882331F0E4
:103E700081E08093010687E00E9451208091010635
:103E8000817839F082E00E94512081E08093010620
:103E900030C0109201060E947235882339F080915B
:103EA00003018062809303010E942A1E8DE594E045
:103EB0000E9474351EC08D3061F0DD2399F1893286
:103EC00009F4DD7F0E9445258F3F09F44AC08A30FE
:103ED00091F70E942A1E8091020681114BC0EC2F9F
:103EE000F0E0E35AFB4F1082D0FF06C08BE00E9447
:103EF0002E20C0E0D0E0E6CF80915D048823B9F3A6
:103F0000843229F48DE594E00E943E36F0CF809112
:103F10000106817211F089E0EACF8DE594E00E94FC
:103F2000D202E5CF813270F28F3261F2883299F09D
:103F30008B3399F0CB3398F42C2F30E0E1E0EC0F89
:103F40009FE9980FD901A35ABB4F9A3108F48052C8
:103F50008C93CE2FB7CFD2E0B5CFD4E0B3CFD1E0A2
:103F6000B1CF0E94841C0E942A1E809102068823E1
:103F700009F4A8CFDF91CF9108950E94841C0E947C
:103F80002A1E80910206811108C00E942C17892BDD
:103F9000B1F780910106883091F3089582E893E0AB
:103FA0000C94611B8DE50E94FF240C94CE1FCF93CF
:103FB000DF93EC01688179818A819B810E94341CA6
:103FC0008CE20E94FF246C817D818E819F810E9402
:103FD000341C8CE20E94FF24688579858A859B8544
:103FE000DF91CF910C94341CCF93C82F84E20E94B0
:103FF000FF248C2F0E94701B8DE3CF910C94FF2423
:10400000CF93DF931F92CDB7DEB769830E94F41F71
:104010006981862F0E94701B0F90DF91CF910C94C5
:10402000CE1FCF92DF92EF92FF92CF93DF931F923A
:10403000CDB7DEB76A017B0129830E94F41F298175
:10404000422FC701B6010E94961B0F90DF91CF91BE
:10405000FF90EF90DF90CF900C94CE1FCF93811103
:1040600005C08CE893E0CF910C94611BC82F85E8C4
:1040700093E00E94611B8C2F0E94701BCF910C94C7
:10408000CE1FCF93C82F8BE793E00E94611B8C2F2C
:104090000E94701B0E94CE1F84EF91E0CF910C9480
:1040A000AE14CF93C82F85E793E00E94611B8C2F3D
:1040B00090E0FC013197EB30F10530F5E159FF4F0D
:1040C0000C94C03C83E693E01DC08FE493E01AC0DB
:1040D0008DE393E017C085E393E014C08CE293E096
:1040E00011C081E293E00EC084E193E00BC08CE04C
:1040F00093E008C089EF92E005C087EE92E002C02D
:104100008EED92E00E94611BCF910C94D21F8AEB3E
:1041100092E00C94611B80E792E00C94611BEF929B
:10412000FF920F931F93CF93DF9360912D0770E061
:1041300080E00E9400206091300770E081E00E94E2
:10414000002060912E0770E082E00E9400206091C4
:104150002F0770E083E00E9400206091420762FB1D
:10416000662760F970E084E00E94002060914207B9
:1041700066FB662760F970E085E00E940020809170
:104180004207082E000C990B692F661F6627661FD1
:1041900070E086E00E9400206091310770E08AE0C4
:1041A0000E940020409132075091330760913407FC
:1041B0007091350723E08BE00E9411204091360773
:1041C00050913707609138077091390723E08CE0F0
:1041D0000E94112060914207617070E08DE00E94A2
:1041E00000206091420765FB662760F970E084E17A
:1041F0000E9400206091420763FB662760F970E02F
:1042000085E10E940020609142076295617070E034
:1042100086E10E9400206091430770E087E10E94E0
:1042200000204091440750914507609146077091E6
:10423000470723E088E10E941120409148075091F0
:10424000490760914A0770914B0723E089E10E947A
:10425000112060914C0770914D078AE10E94002067
:1042600040914E0750914F07609150077091510750
:1042700023E08BE10E9411206091520770E080E002
:1042800090E00E94C539AB01BC0123E08CE10E94A3
:10429000112040913A0750913B0760913C07709183
:1042A0003D0720E08EE10E94112040913E07509191
:1042B0003F07609140077091410720E08FE10E9425
:1042C0001120609142076695617070E080E20E9463
:1042D0000020D4E6F12C0DEF16E083E0E82EED0E81
:1042E000CD2F82E0F81691F0E3E0FE16E9F0F1E060
:1042F000FF1631F0F80140815181628173811AC04B
:10430000F801448555856685778514C020E030E046
:1043100041E655E4F801608D718D828D938D0E9488
:104320001D39AB01BC0106C0F80144A155A166A12D
:1043300077A1705823E08C2F0E9411200C5F1F4F33
:10434000CF5FCE11CECFD65FF394DC3821F6DF916C
:10435000CF911F910F91FF90EF900895CF93DF932E
:10436000CDB7DEB72C970FB6F894DEBF0FBECDBF2A
:104370008AE692E00E94611B65E071E0CE01019641
:104380000E94B335CE0101960E94D71F8AE30E9496
:10439000FF24809106060E94701B0E94D21F2C965B
:1043A0000FB6F894DEBF0FBECDBFDF91CF91089559
:1043B0001F93CF93DF93CDB7DEB72C970FB6F8944A
:1043C000DEBF0FBECDBF10E0BE016F5F7F4F812FFC
:1043D0000E94A22781110AC085E893E00E94611B18
:1043E00087E00E94701B0E94CE1F3CC087E692E0CF
:1043F0000E94611B163029F0173041F481E692E0EB
:1044000002C084E692E00E94611B04C086E3810F33
:104410000E94701B8AE30E94FF24CE0101960E9435
:10442000D71F0E94D21F1F5F183071F68BE592E0F4
:104430000E94611B88EB95E00E94D71F0E94D21F4B
:1044400085E592E00E94611B6091C4057091C505ED
:104450008091C6059091C7050E94341C0E94D21F0E
:104460000E94AE212C960FB6F894DEBF0FBECDBFD2
:10447000DF91CF911F9108958FE492E00E94611B1C
:10448000809189058C3838F08BE492E00E94611BA2
:10449000809189058A580E94701B8FE392E00E94E8
:1044A000611B80918F058A5C0E94701B8FE392E0F4
:1044B0000E94611B80918D058F5E0E94701B8FE3AF
:1044C00092E00E94611B90918B0585E1891B0E94FF
:1044D000701B8FE392E00E94611B80918C05865ACD
:1044E0000E94701B8FE392E00E94611B90918A05ED
:1044F0008EE5891B0E94701B80919005882399F09E
:104500008CE392E00E94611B80919005833029F03A
:104510008E3139F0823039F404C080E30E94FF24E8
:1045200002C00E94701B8CE392E00E94611B80918C
:104530009205803131F0803231F0811107C085E37E
:1045400003C083E301C084E30E94FF248CE392E074
:104550000E94611B80919105882311F088E301C0BE
:1045600089E30E94FF2488E492E00E94611B80910D
:104570009B050E94701B85E492E00E94611B609184
:104580009705709198058091990590919A050E94E0
:10459000431C82E492E00E94611B6091930570913C
:1045A0009405809195059091960540E00E94961B98
:1045B0000C94D21F1F93CF93DF93182FEB0189E345
:1045C00092E00E94611B812F0E94701B8DE30E946C
:1045D000FF24CE010E94551BDF91CF911F910C94B7
:1045E000CE1F0F931F93CF93DF931F92CDB7DEB7EC
:1045F0008C018EE369830E94FF24C8010E94551B31
:104600008AE30E94FF246981862F0F90DF91CF916A
:104610001F910F910C942E20CF93DF93EC018EE12C
:1046200092E00E94611BCE010E94551B0E94D21F86
:1046300088E192E00E94611B86E50E94FF248AE5E2
:104640000E94FF24DF91CF910C94D21F4F925F9272
:104650006F927F92AF92BF92CF92DF92EF92FF92D2
:104660000F931F93CF93DF93CDB7DEB7A4970FB609
:10467000F894DEBF0FBECDBF8CE0E1E1F1E0DE01DA
:10468000599601900D928A95E1F7BE01675E7F4FC2
:10469000CE010D960E94B3358CE30E94FF248091D9
:1046A00001068830E1F058F4813099F1A8F08230A9
:1046B00099F1843009F043C080E092E03EC080323E
:1046C00029F118F4803171F03AC0803441F180381A
:1046D000B1F588EE91E031C083E192E02EC08FE029
:1046E00092E02BC08091030687FD10C089E092E024
:1046F0000E94611B8091030680FF06C080E31AC000
:1047000082FF17C085FFFACF81E314C085E092E0F5
:1047100014C08AEF91E011C084EF91E00EC08EEEDC
:1047200091E00E94611B8091030683FFE9CF83E340
:1047300001C082E30E94FF2402C00E94611B80919D
:104740003107282F2170E22E80FF07C080910D06CF
:10475000882319F081EE91E053C04090C405509039
:10476000C5056090C6057090C7058CEAA82E85E047
:10477000B82E8E010F5F1F4FCE010D966C01F12CEC
:10478000F50161917191819191915F012085318550
:10479000428553850E941E38F801608371838283AD
:1047A0009383F2E0FF120CC0A30192010E941E3815
:1047B000F8016083718382839383EE2019F0CACF5E
:1047C000E11011C0F8012081318142815381F6014D
:1047D00060817181828193810E941D38F60160831E
:1047E000718382839383F3940C5F1F4FF4E0CF0EA9
:1047F000D11C23E0F212C4CFE110ACCF8AED91E0DE
:104800000E94611BCE010D960E94D71F8091310737
:1048100081FF0FC085ED91E00E94611B0E94421B49
:104820000E94701B8CE20E94FF240E94E4240E94DC
:10483000701B80ED91E00E94611B0E9409350E946F
:10484000431C8CE20E94FF2460910E0670910F06BB
:10485000809110069091110640E00E94961B0E94E4
:104860004D0D082F0E942B35182F0E94691CF82E21
:10487000912F902B982B59F18BEC91E00E94611BAA
:10488000FF2019F080E50E94FF24002379F000FF4B
:1048900003C088E50E94FF2401FF03C089E50E9450
:1048A000FF2402FF03C08AE50E94FF24112379F050
:1048B00010FF03C082E50E94FF2411FF03C088E4BB
:1048C0000E94FF2412FF03C083E50E94FF24809111
:1048D0000D06882321F0815080930D0618C0809129
:1048E00001068C7711F08DE101C089E080930D06FF
:1048F00080910C06811103C081E080930C0685EC49
:1049000091E00E94611BCE0101960E94D71F809109
:104910000C06882321F0815080930C063BC08091C7
:1049200001068C7711F083E101C089E080930C06C9
:1049300080EC91E00E94611B809108060E94701B30
:104940008CE20E94FF24809109060E94701B8CE279
:104950000E94FF2480910A060E94701B0E942F294A
:10496000182F0E94DD01082F111102C0882391F039
:104970008CEB91E00E94611B112339F0113011F48E
:1049800083E501C083E40E94FF2400FF03C086E4A6
:104990000E94FF248EE30E94FF240E94CE1FA49653
:1049A0000FB6F894DEBF0FBECDBFDF91CF911F9140
:1049B0000F91FF90EF90DF90CF90BF90AF907F90DE
:1049C0006F905F904F90089580919B0490919C040C
:1049D000981710F0805801C08150891B0895E8ECA9
:1049E000F0E08081826080831092CD0080E180932E
:1049F000CC00E9ECF0E08081886980830895E09143
:104A00009A0491E09E0F993631F490E004C0209111
:104A1000030124FD0FC0209199049217C1F3F0E027
:104A2000ED5EF94F808390939A048091C900806273
:104A30008093C90008951F920F920FB60F92112410
:104A40008F939F93EF93FF9380919904E82FF0E069
:104A5000ED5EF94F90819093CE008F5F893609F417
:104A600080E08093990490919A04891305C0809105
:104A7000C9008F7D8093C900FF91EF919F918F9125
:104A80000F900FBE0F901F90189590919B048091EE
:104A90009C04891761F0E92FF0E0E458F94F808118
:104AA0009F5F913809F490E090939B0408958FEFF5
:104AB00008951F920F920FB60F9211242F933F93D8
:104AC0004F935F936F937F938F939F93AF93BF9316
:104AD000EF93FF93E091CE00E13271F028F4E831DA
:104AE00079F40E949B1356C0EF3321F0EE3741F466
:104AF00082E003C081E001C088E00E9435364AC0F0
:104B0000E7FF37C08E2F90E0FC01E458F109ED314A
:104B1000F10508F03FC0E658FF4F0C94C03C80E21E
:104B2000ECCF8091010685FF35C080E4E6CF81E0BF
:104B30000DC082E00BC084E009C088E007C080E1BE
:104B400005C080E203C080E401C080E80E94FF3716
:104B500021C081E00BC082E009C084E007C088E08A
:104B600005C080E103C080E201C080E40E940838F3
:104B700011C0A0919C0481E08A0F813809F480E083
:104B800090919B04891731F0B0E0A458B94FEC9391
:104B900080939C04FF91EF91BF91AF919F918F9172
:104BA0007F916F915F914F913F912F910F900FBE29
:104BB0000F901F90189580919C0480939B040895FA
:104BC000CF93DF9300D01F92CDB7DEB76A837B838C
:104BD00089830E94BD1F89812DE3829FC00111241A
:104BE0004CE350E06A817B819D5F0F900F900F90A6
:104BF000DF91CF910C9435024CE350E0BC018EEA7A
:104C000093E00C943502CF93DF9300D01F92CDB781
:104C1000DEB76A837B8389830E94BD1F89812DE073
:104C2000829FC00111244CE050E06A817B819E5F2D
:104C30000F900F900F90DF91CF910C9435026AE0A6
:104C400080E090E00E94130246E550E06DEF76E0D0
:104C500081E090E00C943502EF92FF920F931F9346
:104C6000CF93DF93CDB7DEB72C970FB6F894DEBFA6
:104C70000FBECDBF182F80FFF2C08AE080932D07B2
:104C80008FEF8093300710922E0782E080932F07DA
:104C900081E0809331078AE097EDA3E2BCE3809343
:104CA000320790933307A0933407B09335078FE60C
:104CB00092E1A3E0BBE38093360790933707A0937C
:104CC0003807B093390780E090E0A0E0B5E4809326
:104CD0003A0790933B07A0933C07B0933D0780E0D1
:104CE00090E0A0EAB0E480933E0790933F07A09342
:104CF0004007B093410723E02093430740E050E092
:104D000066E174E440934407509345076093460777
:104D10007093470740E050E06AE774E44093480727
:104D20005093490760934A0770934B072AEF30E08E
:104D300030934D0720934C0780934E0790934F0775
:104D4000A0935007B09351071092520782E78093C7
:104D5000420780E090E0A0E2B3E48093FD069093E8
:104D6000FE06A093FF06B09300078093010790937F
:104D70000207A0930307B093040780E090E0AAE73E
:104D8000B3E48093050790930607A0930707B093B9
:104D9000080780E090E4ACE1B6E4809309079093C3
:104DA0000A07A0930B07B0930C0780930D0790930D
:104DB0000E07A0930F07B093100780E090E0AAEFD2
:104DC000B3E48093110790931207A0931307B09355
:104DD000140780E09AEBABEDB9E48093150790934C
:104DE0001607A0931707B09318078093190790939D
:104DF0001A07A0931B07B0931C0780E090EAACE071
:104E0000B7E480931D0790931E07A0931F07B093EC
:104E1000200780E090E0A9E3B4EC80932107909311
:104E20002207A0932307B093240780E090E0A2ED2F
:104E3000B3EC8093250790932607A0932707B093A0
:104E4000280780E090E0A8E4B3EC809329079093D2
:104E50002A07A0932B07B0932C070E941F2611FF4F
:104E600010C0CE0101967C018CE0F70111928A9569
:104E7000E9F700E0B701802F0E9403260F5F08309A
:104E8000C9F712FF14C060E080E093E00E941302B3
:104E900060E081E093E00E94130260E08DE393E024
:104EA0000E94130260E08EE393E00E94130213FF5E
:104EB0000AC060E08EEA93E00E94130260E08FEA8D
:104EC00093E00E9413022C960FB6F894DEBF0FBE3B
:104ED000CDBFDF91CF911F910F91FF90EF9008957B
:104EE0001F93CF93DF93182FEB018DE3189FB00131
:104EF00011247D5F4CE350E0CE010E947402892BA7
:104F000039F41882BE01812F0E94E02580E001C0A3
:104F100081E0DF91CF911F910895CF93DF93EC0152
:104F20004CE350E06EEA73E00E947402892B31F486
:104F30001882CE010E94FC2580E001C081E0DF9153
:104F4000CF9108951F93CF93DF93182FEB018DE03E
:104F5000189FB00111247E5F4CE050E0CE010E940A
:104F60007402892B59F48CE0FE0111928A95E9F7BD
:104F7000BE01812F0E94032680E001C081E0DF9105
:104F8000CF911F91089580E090E00E940B028A303B
:104F900059F446E550E061E070E08DEF96E00E9444
:104FA000740221E0892B09F420E0822F0895CF922A
:104FB000DF92EF92FF92CF93DF93C82F6A017B01BC
:104FC00020E030E0A901C701B6010E94133987FD36
:104FD00011C1C43608F441C08CE98C0F20E0833045
:104FE00098F590E0880F991F880F991F223059F08B
:104FF000FC012330F1F0213019F0E350F94F1FC0CC
:10500000E75FF84F1CC0EC01CB5ED84F20E030E0EA
:1050100040E752E4C701B6010E94753B20E030E052
:1050200040E752E40E94753B688379838A839B83BF
:10503000DDC0EF5DF84FF7FAF094F7F8F094C08216
:10504000D182E282F382D2C02F5F8A3008F4D4C0CA
:10505000243009F4D1C08A50C2CFC701B6010E94E2
:10506000583C0E9496398C2F90E08132910508F0CF
:10507000C3C0FC01E956FF4F0C94C03C633008F4F8
:10508000BDC060932D07B2C060933007AFC060937E
:105090002E0702C060932F070E94052DA7C08091A4
:1050A0004207662311F084609FC08B7F9DC0809172
:1050B0004207662311F0806497C08F7B95C0809172
:1050C0004207662311F0806801C08F778093420702
:1050D00080E00E94521C8AC06093310787C0C09252
:1050E0003207D0923307E0923407F09235077EC042
:1050F000C0923607D0923707E0923807F09239070E
:1051000075C080914207662311F0816001C08E7FD7
:10511000809342070E94943569C0809142076623BC
:1051200021F084FF6DC080625FC08F7D5DC0809183
:105130004207662311F0886001C0877F8093420791
:105140000E94360D53C080914207662311F08061A2
:105150004BC08F7C49C06093430748C0C09244074E
:10516000D0924507E0924607F09247073FC0C092B1
:105170004807D0924907E0924A07F0924B0736C0A1
:1051800070E070934D0760934C0730C0C0924E079B
:10519000D0924F07E0925007F092510727C0C70105
:1051A000B6010E949639862F6093520713C0C092B1
:1051B0003A07D0923B07E0923C07F0923D0708C0C7
:1051C000C0923E07D0923F07E0924007F09241071D
:1051D000809152070E94412909C0809142076623AD
:1051E00011F0826001C08D7F809342070E941F26CC
:1051F00080E007C084E005C083E003C086E001C012
:105200008AE0DF91CF91FF90EF90DF90CF900895EB
:105210000E94C327811108C087E00E942E208FEFD3
:105220000E942C260C948F200895882321F0813031
:1052300021F080E1089584E0089588E008958823AE
:1052400021F0813021F080E8089580E2089580E423
:105250000895813011F082E0089584E008958091EE
:10526000A00087FF04C02D9904C081E0089580E06C
:10527000089582E00895E0EAF0E080818F778083EE
:105280000895519A93E09093A000813041F028F066
:10529000823039F0833041F00AC08BE006C08CE0E8
:1052A00004C08AE08093A10089E08093A100259A40
:1052B00020913E0730913F074091400750914107B0
:1052C00060913A0770913B0780913C0790913D07B0
:1052D0000E941D389B01AC0160E070E88FE794E408
:1052E0000E941D3960939D0470939E0480939F04D7
:1052F0009093A0040C943B29009711F40C943B2943
:105300009093A9008093A8008091A000806880936A
:10531000A00008954F925F926F927F928F929F921A
:10532000AF92BF92CF92DF92EF92FF92CF936B0139
:105330007C01C0910A0680903E0790903F07A090A4
:105340004007B090410740903A0750903B0760906B
:105350003C0770903D07A3019201C501B4010E9472
:10536000353B87FF1AC06C2F70E080E090E00E9410
:10537000C7392AE037ED43E25CE30E94753B9B01AD
:10538000AC01C701B6010E94753B6B017C01A30112
:1053900092010E94353B87FD0BC040920E06509251
:1053A0000F0660921006709211068FEF93E04AC0CC
:1053B000A5019401C701B6010E9413391816FCF02B
:1053C00020E030E0A901C701B6010E941339811124
:1053D0000BC010920E0610920F061092100610923B
:1053E000110680E090E02EC080920E0690920F068B
:1053F000A0921006B092110681E090E023C0C09206
:105400000E06D0920F06E0921006F0921106A5014A
:105410009401C701B6010E941D3820919D0430916E
:105420009E0440919F045091A0040E94753B0E94ED
:10543000023A20E030E040E85FE30E941E380E941C
:105440009639CB01CF91FF90EF90DF90CF90BF9036
:10545000AF909F908F907F906F905F904F90089546
:1054600090910206911123C081110BC010920E067B
:1054700010920F0610921006109211060E943B29FE
:1054800014C0803111F42D9801C02D9A90914207DB
:1054900091FF05C0803219F440E050E0BA01CB0121
:1054A000BA010E948A290E947C2910920C06089554
:1054B000CF93DF9300D000D01F92CDB7DEB790918D
:1054C00001069230A9F04A835B836C837D838983D4
:1054D0000E94BD1F4A815B816C817D8189810F9013
:1054E0000F900F900F900F90DF91CF910C94302A76
:1054F0000F900F900F900F900F90DF91CF91089524
:105500008091420782FF02C0289A01C028988091AA
:10551000D8048093EA0480912D07880F84508195E8
:105520008093E90480916F00826080936F000895FA
:1055300080916F008D7F80936F0080918100887FC4
:105540008160809381001092D60480913007909101
:1055500001068F3F39F420910201211103C09038D8
:1055600041F402C0943029F090E00E94AE1481E032
:1055700001C080E09091420792FF02C091E089272C
:10558000882311F0289A0895289808951F920F9261
:105590000FB60F9211242F933F934F935F936F9306
:1055A0007F938F939F93AF93BF93EF93FF938091DC
:1055B000D604811103C28BB19091EB04907E8F7160
:1055C000892B8BB98BB1837E9091EA04892B8BB99F
:1055D0008091E90486BD82E085BD81E08093D60498
:1055E00078948091FD049091FE04892B09F0B4C059
:1055F0008091DB049091DA04981709F49CC08091A3
:10560000DB0428E0829FC0011124FC01E150FB4F24
:10561000F093FE04E093FD042281338130938900EE
:1056200020938800208131813093F9042093F8047D
:10563000E4812091FA042E1761F1E093FA0422E14B
:10564000E29FF0011124E15DFA4FF093FC04E09336
:10565000FB044485558566857785769567955795CE
:1056600047954093E4045093E5046093E6047093F7
:10567000E7044093E0045093E1046093E2047093E4
:10568000E3044093DC045093DD046093DE047093E4
:10569000DF04E091FB04F091FC043091D7042089F1
:1056A00023272093EB04DC01A150BB4F15969C915E
:1056B00015974081518162817381092E04C07695CE
:1056C0006795579547950A94D2F74093EC04509309
:1056D000ED046093EE047093EF044481558166817C
:1056E0007781092E04C076956795579547950A945A
:1056F000D2F74093F0045093F1046093F204709356
:10570000F304408551856285738504C0769567955D
:10571000579547959A95D2F74093F4045093F50422
:105720006093F6047093F70416968D919C911797E9
:105730000E947C2911C00E94982AE091FB04F091FC
:10574000FC048189882321F080E090E00E947C297C
:1057500084E00E94353632C180910401813011F419
:105760000E946F1C1092EA044091EC045091ED04E9
:105770006091EE047091EF048091DC049091DD045F
:10578000A091DE04B091DF04840F951FA61FB71F00
:105790008093DC049093DD04A093DE04B093DF04D7
:1057A000E091FB04F091FC0444855585668577857E
:1057B000481759076A077B0768F524E02093EA0435
:1057C0004485558566857785841B950BA60BB70B9D
:1057D0008093DC049093DD04A093DE04B093DF0497
:1057E00020898091110190911201A0911301B09133
:1057F000140125FF04C00197A109B10903C0019656
:10580000A11DB11D8093110190931201A09313016A
:10581000B09314014091F0045091F1046091F204AE
:105820007091F3048091E0049091E104A091E2046E
:10583000B091E304840F951FA61FB71F8093E00467
:105840009093E104A093E204B093E304448555856A
:1058500066857785481759076A077B0778F5209191
:10586000EA0428602093EA04448555856685778597
:10587000841B950BA60BB70B8093E0049093E10477
:10588000A093E204B093E3042089809115019091E4
:105890001601A0911701B091180126FF04C00197CD
:1058A000A109B10903C00196A11DB11D8093150185
:1058B00090931601A0931701B09318014091F4043E
:1058C0005091F5046091F6047091F7048091E4041E
:1058D0009091E504A091E604B091E704840F951F30
:1058E000A61FB71F8093E4049093E504A093E604F9
:1058F000B093E70444855585668577854817590731
:105900006A077B0778F52091EA0420612093EA0476
:105910004485558566857785841B950BA60BB70B4B
:105920008093E4049093E504A093E604B093E70425
:1059300020898091190190911A01A0911B01B091C9
:105940001C0127FF04C00197A109B10903C00196FA
:10595000A11DB11D8093190190931A01A0931B0101
:10596000B0931C0180910106843039F490910706B0
:105970008091EA0489238093EA048091F80490914D
:10598000F90401979093F9048093F804892B69F442
:105990001092FE041092FD048091DB048F5F8093CF
:1059A000DB04863011F41092DB049091D8048091CE
:1059B000EA0489278093EA041092D604FF91EF91BC
:1059C000BF91AF919F918F917F916F915F914F9117
:1059D0003F912F910F900FBE0F901F9018951F921F
:1059E0000F920FB60F9211248F939F938BB19091CA
:1059F000D8049C71837E892B8BB915BC9F918F91A4
:105A00000F900FBE0F901F9018950F931F93CF9379
:105A1000DF931092D8041092D704C0E0D0E01C2F7E
:105A20000C2F20912E0730E08C2F0C2E02C03595C4
:105A300027950A94E2F720FF07C00E94152990914C
:105A4000D804892B8093D80420912F0730E002C01E
:105A5000359527950A95E2F720FF08C0812F0E940F
:105A60001F299091D704892B8093D7042196C330A6
:105A7000D105A9F6DF91CF911F910F910895CF9392
:105A8000DF930E94982A81E3E1EAF4E0DF011D92AE
:105A90008A95E9F7CCEDD4E083E2FE0111928A9574
:105AA000E9F71092D5041092D4041092DB041092FE
:105AB000DA0481E08093D9041092D6040E94052D67
:105AC0008091D7048F878BB1837E9091D804892BE6
:105AD0008BB98BB18F719091D704892B8BB9DF91E2
